{
  "_format": "hh-sol-artifact-1",
  "contractName": "BurnMyWallet",
  "sourceName": "contracts/nft.sol",
  "abi": [
    {
      "inputs": [],
      "stateMutability": "nonpayable",
      "type": "constructor"
    },
    {
      "anonymous": false,
      "inputs": [
        {
          "indexed": true,
          "internalType": "address",
          "name": "owner",
          "type": "address"
        },
        {
          "indexed": true,
          "internalType": "address",
          "name": "approved",
          "type": "address"
        },
        {
          "indexed": true,
          "internalType": "uint256",
          "name": "tokenId",
          "type": "uint256"
        }
      ],
      "name": "Approval",
      "type": "event"
    },
    {
      "anonymous": false,
      "inputs": [
        {
          "indexed": true,
          "internalType": "address",
          "name": "owner",
          "type": "address"
        },
        {
          "indexed": true,
          "internalType": "address",
          "name": "operator",
          "type": "address"
        },
        {
          "indexed": false,
          "internalType": "bool",
          "name": "approved",
          "type": "bool"
        }
      ],
      "name": "ApprovalForAll",
      "type": "event"
    },
    {
      "anonymous": false,
      "inputs": [
        {
          "indexed": true,
          "internalType": "address",
          "name": "previousOwner",
          "type": "address"
        },
        {
          "indexed": true,
          "internalType": "address",
          "name": "newOwner",
          "type": "address"
        }
      ],
      "name": "OwnershipTransferred",
      "type": "event"
    },
    {
      "anonymous": false,
      "inputs": [
        {
          "indexed": true,
          "internalType": "address",
          "name": "from",
          "type": "address"
        },
        {
          "indexed": true,
          "internalType": "address",
          "name": "to",
          "type": "address"
        },
        {
          "indexed": true,
          "internalType": "uint256",
          "name": "tokenId",
          "type": "uint256"
        }
      ],
      "name": "Transfer",
      "type": "event"
    },
    {
      "inputs": [
        {
          "internalType": "address",
          "name": "to",
          "type": "address"
        },
        {
          "internalType": "uint256",
          "name": "tokenId",
          "type": "uint256"
        }
      ],
      "name": "approve",
      "outputs": [],
      "stateMutability": "nonpayable",
      "type": "function"
    },
    {
      "inputs": [
        {
          "internalType": "address",
          "name": "owner",
          "type": "address"
        }
      ],
      "name": "balanceOf",
      "outputs": [
        {
          "internalType": "uint256",
          "name": "",
          "type": "uint256"
        }
      ],
      "stateMutability": "view",
      "type": "function"
    },
    {
      "inputs": [
        {
          "internalType": "uint256",
          "name": "tokenId",
          "type": "uint256"
        }
      ],
      "name": "getApproved",
      "outputs": [
        {
          "internalType": "address",
          "name": "",
          "type": "address"
        }
      ],
      "stateMutability": "view",
      "type": "function"
    },
    {
      "inputs": [
        {
          "internalType": "address",
          "name": "owner",
          "type": "address"
        },
        {
          "internalType": "address",
          "name": "operator",
          "type": "address"
        }
      ],
      "name": "isApprovedForAll",
      "outputs": [
        {
          "internalType": "bool",
          "name": "",
          "type": "bool"
        }
      ],
      "stateMutability": "view",
      "type": "function"
    },
    {
      "inputs": [],
      "name": "name",
      "outputs": [
        {
          "internalType": "string",
          "name": "",
          "type": "string"
        }
      ],
      "stateMutability": "view",
      "type": "function"
    },
    {
      "inputs": [],
      "name": "owner",
      "outputs": [
        {
          "internalType": "address",
          "name": "",
          "type": "address"
        }
      ],
      "stateMutability": "view",
      "type": "function"
    },
    {
      "inputs": [
        {
          "internalType": "uint256",
          "name": "tokenId",
          "type": "uint256"
        }
      ],
      "name": "ownerOf",
      "outputs": [
        {
          "internalType": "address",
          "name": "",
          "type": "address"
        }
      ],
      "stateMutability": "view",
      "type": "function"
    },
    {
      "inputs": [],
      "name": "renounceOwnership",
      "outputs": [],
      "stateMutability": "nonpayable",
      "type": "function"
    },
    {
      "inputs": [],
      "name": "safeMint",
      "outputs": [],
      "stateMutability": "nonpayable",
      "type": "function"
    },
    {
      "inputs": [
        {
          "internalType": "address",
          "name": "from",
          "type": "address"
        },
        {
          "internalType": "address",
          "name": "to",
          "type": "address"
        },
        {
          "internalType": "uint256",
          "name": "tokenId",
          "type": "uint256"
        }
      ],
      "name": "safeTransferFrom",
      "outputs": [],
      "stateMutability": "nonpayable",
      "type": "function"
    },
    {
      "inputs": [
        {
          "internalType": "address",
          "name": "from",
          "type": "address"
        },
        {
          "internalType": "address",
          "name": "to",
          "type": "address"
        },
        {
          "internalType": "uint256",
          "name": "tokenId",
          "type": "uint256"
        },
        {
          "internalType": "bytes",
          "name": "_data",
          "type": "bytes"
        }
      ],
      "name": "safeTransferFrom",
      "outputs": [],
      "stateMutability": "nonpayable",
      "type": "function"
    },
    {
      "inputs": [
        {
          "internalType": "address",
          "name": "operator",
          "type": "address"
        },
        {
          "internalType": "bool",
          "name": "approved",
          "type": "bool"
        }
      ],
      "name": "setApprovalForAll",
      "outputs": [],
      "stateMutability": "nonpayable",
      "type": "function"
    },
    {
      "inputs": [
        {
          "internalType": "bytes4",
          "name": "interfaceId",
          "type": "bytes4"
        }
      ],
      "name": "supportsInterface",
      "outputs": [
        {
          "internalType": "bool",
          "name": "",
          "type": "bool"
        }
      ],
      "stateMutability": "view",
      "type": "function"
    },
    {
      "inputs": [],
      "name": "symbol",
      "outputs": [
        {
          "internalType": "string",
          "name": "",
          "type": "string"
        }
      ],
      "stateMutability": "view",
      "type": "function"
    },
    {
      "inputs": [
        {
          "internalType": "uint256",
          "name": "tokenId",
          "type": "uint256"
        }
      ],
      "name": "tokenURI",
      "outputs": [
        {
          "internalType": "string",
          "name": "",
          "type": "string"
        }
      ],
      "stateMutability": "view",
      "type": "function"
    },
    {
      "inputs": [
        {
          "internalType": "address",
          "name": "from",
          "type": "address"
        },
        {
          "internalType": "address",
          "name": "to",
          "type": "address"
        },
        {
          "internalType": "uint256",
          "name": "tokenId",
          "type": "uint256"
        }
      ],
      "name": "transferFrom",
      "outputs": [],
      "stateMutability": "nonpayable",
      "type": "function"
    },
    {
      "inputs": [
        {
          "internalType": "address",
          "name": "newOwner",
          "type": "address"
        }
      ],
      "name": "transferOwnership",
      "outputs": [],
      "stateMutability": "nonpayable",
      "type": "function"
    }
  ],
  "bytecode": "0x60806040523480156200001157600080fd5b506040518060400160405280600c81526020017f4275726e4d7957616c6c657400000000000000000000000000000000000000008152506040518060400160405280600481526020017f4255524e00000000000000000000000000000000000000000000000000000000815250816000908051906020019062000096929190620001a6565b508060019080519060200190620000af929190620001a6565b505050620000d2620000c6620000d860201b60201c565b620000e060201b60201c565b620002bb565b600033905090565b6000600660009054906101000a900473ffffffffffffffffffffffffffffffffffffffff16905081600660006101000a81548173ffffffffffffffffffffffffffffffffffffffff021916908373ffffffffffffffffffffffffffffffffffffffff1602179055508173ffffffffffffffffffffffffffffffffffffffff168173ffffffffffffffffffffffffffffffffffffffff167f8be0079c531659141344cd1fd0a4f28419497f9722a3daafe3b4186f6b6457e060405160405180910390a35050565b828054620001b49062000256565b90600052602060002090601f016020900481019282620001d8576000855562000224565b82601f10620001f357805160ff191683800117855562000224565b8280016001018555821562000224579182015b828111156200022357825182559160200191906001019062000206565b5b50905062000233919062000237565b5090565b5b808211156200025257600081600090555060010162000238565b5090565b600060028204905060018216806200026f57607f821691505b602082108114156200028657620002856200028c565b5b50919050565b7f4e487b7100000000000000000000000000000000000000000000000000000000600052602260045260246000fd5b612cc080620002cb6000396000f3fe608060405234801561001057600080fd5b506004361061010b5760003560e01c806370a08231116100a2578063a22cb46511610071578063a22cb46514610292578063b88d4fde146102ae578063c87b56dd146102ca578063e985e9c5146102fa578063f2fde38b1461032a5761010b565b806370a082311461021c578063715018a61461024c5780638da5cb5b1461025657806395d89b41146102745761010b565b806323b872dd116100de57806323b872dd146101aa57806342842e0e146101c65780636352211e146101e25780636871ee40146102125761010b565b806301ffc9a71461011057806306fdde0314610140578063081812fc1461015e578063095ea7b31461018e575b600080fd5b61012a60048036038101906101259190611d58565b610346565b6040516101379190612181565b60405180910390f35b610148610428565b604051610155919061219c565b60405180910390f35b61017860048036038101906101739190611daa565b6104ba565b604051610185919061211a565b60405180910390f35b6101a860048036038101906101a39190611d1c565b61053f565b005b6101c460048036038101906101bf9190611c16565b610657565b005b6101e060048036038101906101db9190611c16565b6106b7565b005b6101fc60048036038101906101f79190611daa565b6106d7565b604051610209919061211a565b60405180910390f35b61021a610789565b005b61023660048036038101906102319190611bb1565b61082a565b60405161024391906123de565b60405180910390f35b6102546108e2565b005b61025e61096a565b60405161026b919061211a565b60405180910390f35b61027c610994565b604051610289919061219c565b60405180910390f35b6102ac60048036038101906102a79190611ce0565b610a26565b005b6102c860048036038101906102c39190611c65565b610a3c565b005b6102e460048036038101906102df9190611daa565b610a9e565b6040516102f1919061219c565b60405180910390f35b610314600480360381019061030f9190611bda565b610b45565b6040516103219190612181565b60405180910390f35b610344600480360381019061033f9190611bb1565b610bd9565b005b60007f80ac58cd000000000000000000000000000000000000000000000000000000007bffffffffffffffffffffffffffffffffffffffffffffffffffffffff1916827bffffffffffffffffffffffffffffffffffffffffffffffffffffffff1916148061041157507f5b5e139f000000000000000000000000000000000000000000000000000000007bffffffffffffffffffffffffffffffffffffffffffffffffffffffff1916827bffffffffffffffffffffffffffffffffffffffffffffffffffffffff1916145b80610421575061042082610cd1565b5b9050919050565b60606000805461043790612603565b80601f016020809104026020016040519081016040528092919081815260200182805461046390612603565b80156104b05780601f10610485576101008083540402835291602001916104b0565b820191906000526020600020905b81548152906001019060200180831161049357829003601f168201915b5050505050905090565b60006104c582610d3b565b610504576040517f08c379a00000000000000000000000000000000000000000000000000000000081526004016104fb9061233e565b60405180910390fd5b6004600083815260200190815260200160002060009054906101000a900473ffffffffffffffffffffffffffffffffffffffff169050919050565b600061054a826106d7565b90508073ffffffffffffffffffffffffffffffffffffffff168373ffffffffffffffffffffffffffffffffffffffff1614156105bb576040517f08c379a00000000000000000000000000000000000000000000000000000000081526004016105b29061239e565b60405180910390fd5b8073ffffffffffffffffffffffffffffffffffffffff166105da610da7565b73ffffffffffffffffffffffffffffffffffffffff161480610609575061060881610603610da7565b610b45565b5b610648576040517f08c379a000000000000000000000000000000000000000000000000000000000815260040161063f906122be565b60405180910390fd5b6106528383610daf565b505050565b610668610662610da7565b82610e68565b6106a7576040517f08c379a000000000000000000000000000000000000000000000000000000000815260040161069e906123be565b60405180910390fd5b6106b2838383610f46565b505050565b6106d283838360405180602001604052806000815250610a3c565b505050565b6000806002600084815260200190815260200160002060009054906101000a900473ffffffffffffffffffffffffffffffffffffffff169050600073ffffffffffffffffffffffffffffffffffffffff168173ffffffffffffffffffffffffffffffffffffffff161415610780576040517f08c379a0000000000000000000000000000000000000000000000000000000008152600401610777906122fe565b60405180910390fd5b80915050919050565b610791610da7565b73ffffffffffffffffffffffffffffffffffffffff166107af61096a565b73ffffffffffffffffffffffffffffffffffffffff1614610805576040517f08c379a00000000000000000000000000000000000000000000000000000000081526004016107fc9061235e565b60405180910390fd5b600061081160076111ad565b905061081d60076111bb565b61082733826111d1565b50565b60008073ffffffffffffffffffffffffffffffffffffffff168273ffffffffffffffffffffffffffffffffffffffff16141561089b576040517f08c379a0000000000000000000000000000000000000000000000000000000008152600401610892906122de565b60405180910390fd5b600360008373ffffffffffffffffffffffffffffffffffffffff1673ffffffffffffffffffffffffffffffffffffffff168152602001908152602001600020549050919050565b6108ea610da7565b73ffffffffffffffffffffffffffffffffffffffff1661090861096a565b73ffffffffffffffffffffffffffffffffffffffff161461095e576040517f08c379a00000000000000000000000000000000000000000000000000000000081526004016109559061235e565b60405180910390fd5b61096860006111ef565b565b6000600660009054906101000a900473ffffffffffffffffffffffffffffffffffffffff16905090565b6060600180546109a390612603565b80601f01602080910402602001604051908101604052809291908181526020018280546109cf90612603565b8015610a1c5780601f106109f157610100808354040283529160200191610a1c565b820191906000526020600020905b8154815290600101906020018083116109ff57829003601f168201915b5050505050905090565b610a38610a31610da7565b83836112b5565b5050565b610a4d610a47610da7565b83610e68565b610a8c576040517f08c379a0000000000000000000000000000000000000000000000000000000008152600401610a83906123be565b60405180910390fd5b610a9884848484611422565b50505050565b6060610aa982610d3b565b610ae8576040517f08c379a0000000000000000000000000000000000000000000000000000000008152600401610adf9061237e565b60405180910390fd5b6000610af261147e565b90506000815111610b125760405180602001604052806000815250610b3d565b80610b1c846114bb565b604051602001610b2d9291906120f6565b6040516020818303038152906040525b915050919050565b6000600560008473ffffffffffffffffffffffffffffffffffffffff1673ffffffffffffffffffffffffffffffffffffffff16815260200190815260200160002060008373ffffffffffffffffffffffffffffffffffffffff1673ffffffffffffffffffffffffffffffffffffffff16815260200190815260200160002060009054906101000a900460ff16905092915050565b610be1610da7565b73ffffffffffffffffffffffffffffffffffffffff16610bff61096a565b73ffffffffffffffffffffffffffffffffffffffff1614610c55576040517f08c379a0000000000000000000000000000000000000000000000000000000008152600401610c4c9061235e565b60405180910390fd5b600073ffffffffffffffffffffffffffffffffffffffff168173ffffffffffffffffffffffffffffffffffffffff161415610cc5576040517f08c379a0000000000000000000000000000000000000000000000000000000008152600401610cbc906121fe565b60405180910390fd5b610cce816111ef565b50565b60007f01ffc9a7000000000000000000000000000000000000000000000000000000007bffffffffffffffffffffffffffffffffffffffffffffffffffffffff1916827bffffffffffffffffffffffffffffffffffffffffffffffffffffffff1916149050919050565b60008073ffffffffffffffffffffffffffffffffffffffff166002600084815260200190815260200160002060009054906101000a900473ffffffffffffffffffffffffffffffffffffffff1673ffffffffffffffffffffffffffffffffffffffff1614159050919050565b600033905090565b816004600083815260200190815260200160002060006101000a81548173ffffffffffffffffffffffffffffffffffffffff021916908373ffffffffffffffffffffffffffffffffffffffff160217905550808273ffffffffffffffffffffffffffffffffffffffff16610e22836106d7565b73ffffffffffffffffffffffffffffffffffffffff167f8c5be1e5ebec7d5bd14f71427d1e84f3dd0314c0f7b2291e5b200ac8c7c3b92560405160405180910390a45050565b6000610e7382610d3b565b610eb2576040517f08c379a0000000000000000000000000000000000000000000000000000000008152600401610ea99061229e565b60405180910390fd5b6000610ebd836106d7565b90508073ffffffffffffffffffffffffffffffffffffffff168473ffffffffffffffffffffffffffffffffffffffff161480610eff5750610efe8185610b45565b5b80610f3d57508373ffffffffffffffffffffffffffffffffffffffff16610f25846104ba565b73ffffffffffffffffffffffffffffffffffffffff16145b91505092915050565b8273ffffffffffffffffffffffffffffffffffffffff16610f66826106d7565b73ffffffffffffffffffffffffffffffffffffffff1614610fbc576040517f08c379a0000000000000000000000000000000000000000000000000000000008152600401610fb39061221e565b60405180910390fd5b600073ffffffffffffffffffffffffffffffffffffffff168273ffffffffffffffffffffffffffffffffffffffff16141561102c576040517f08c379a00000000000000000000000000000000000000000000000000000000081526004016110239061225e565b60405180910390fd5b611037838383611668565b611042600082610daf565b6001600360008573ffffffffffffffffffffffffffffffffffffffff1673ffffffffffffffffffffffffffffffffffffffff16815260200190815260200160002060008282546110929190612519565b925050819055506001600360008473ffffffffffffffffffffffffffffffffffffffff1673ffffffffffffffffffffffffffffffffffffffff16815260200190815260200160002060008282546110e99190612492565b92505081905550816002600083815260200190815260200160002060006101000a81548173ffffffffffffffffffffffffffffffffffffffff021916908373ffffffffffffffffffffffffffffffffffffffff160217905550808273ffffffffffffffffffffffffffffffffffffffff168473ffffffffffffffffffffffffffffffffffffffff167fddf252ad1be2c89b69c2b068fc378daa952ba7f163c4a11628f55a4df523b3ef60405160405180910390a46111a88383836116e7565b505050565b600081600001549050919050565b6001816000016000828254019250508190555050565b6111eb8282604051806020016040528060008152506116ec565b5050565b6000600660009054906101000a900473ffffffffffffffffffffffffffffffffffffffff16905081600660006101000a81548173ffffffffffffffffffffffffffffffffffffffff021916908373ffffffffffffffffffffffffffffffffffffffff1602179055508173ffffffffffffffffffffffffffffffffffffffff168173ffffffffffffffffffffffffffffffffffffffff167f8be0079c531659141344cd1fd0a4f28419497f9722a3daafe3b4186f6b6457e060405160405180910390a35050565b8173ffffffffffffffffffffffffffffffffffffffff168373ffffffffffffffffffffffffffffffffffffffff161415611324576040517f08c379a000000000000000000000000000000000000000000000000000000000815260040161131b9061227e565b60405180910390fd5b80600560008573ffffffffffffffffffffffffffffffffffffffff1673ffffffffffffffffffffffffffffffffffffffff16815260200190815260200160002060008473ffffffffffffffffffffffffffffffffffffffff1673ffffffffffffffffffffffffffffffffffffffff16815260200190815260200160002060006101000a81548160ff0219169083151502179055508173ffffffffffffffffffffffffffffffffffffffff168373ffffffffffffffffffffffffffffffffffffffff167f17307eab39ab6107e8899845ad3d59bd9653f200f220920489ca2b5937696c31836040516114159190612181565b60405180910390a3505050565b61142d848484610f46565b61143984848484611747565b611478576040517f08c379a000000000000000000000000000000000000000000000000000000000815260040161146f906121de565b60405180910390fd5b50505050565b60606040518060400160405280601981526020017f68747470733a2f2f6275726e6d7977616c6c65742e636f6d2f00000000000000815250905090565b60606000821415611503576040518060400160405280600181526020017f30000000000000000000000000000000000000000000000000000000000000008152509050611663565b600082905060005b6000821461153557808061151e90612666565b915050600a8261152e91906124e8565b915061150b565b60008167ffffffffffffffff811115611577577f4e487b7100000000000000000000000000000000000000000000000000000000600052604160045260246000fd5b6040519080825280601f01601f1916602001820160405280156115a95781602001600182028036833780820191505090505b5090505b6000851461165c576001826115c29190612519565b9150600a856115d191906126af565b60306115dd9190612492565b60f81b818381518110611619577f4e487b7100000000000000000000000000000000000000000000000000000000600052603260045260246000fd5b60200101907effffffffffffffffffffffffffffffffffffffffffffffffffffffffffffff1916908160001a905350600a8561165591906124e8565b94506115ad565b8093505050505b919050565b600073ffffffffffffffffffffffffffffffffffffffff168373ffffffffffffffffffffffffffffffffffffffff16146116d7576040517f08c379a00000000000000000000000000000000000000000000000000000000081526004016116ce906121be565b60405180910390fd5b6116e28383836118de565b505050565b505050565b6116f683836118e3565b6117036000848484611747565b611742576040517f08c379a0000000000000000000000000000000000000000000000000000000008152600401611739906121de565b60405180910390fd5b505050565b60006117688473ffffffffffffffffffffffffffffffffffffffff16611abd565b156118d1578373ffffffffffffffffffffffffffffffffffffffff1663150b7a02611791610da7565b8786866040518563ffffffff1660e01b81526004016117b39493929190612135565b602060405180830381600087803b1580156117cd57600080fd5b505af19250505080156117fe57506040513d601f19601f820116820180604052508101906117fb9190611d81565b60015b611881573d806000811461182e576040519150601f19603f3d011682016040523d82523d6000602084013e611833565b606091505b50600081511415611879576040517f08c379a0000000000000000000000000000000000000000000000000000000008152600401611870906121de565b60405180910390fd5b805181602001fd5b63150b7a0260e01b7bffffffffffffffffffffffffffffffffffffffffffffffffffffffff1916817bffffffffffffffffffffffffffffffffffffffffffffffffffffffff1916149150506118d6565b600190505b949350505050565b505050565b600073ffffffffffffffffffffffffffffffffffffffff168273ffffffffffffffffffffffffffffffffffffffff161415611953576040517f08c379a000000000000000000000000000000000000000000000000000000000815260040161194a9061231e565b60405180910390fd5b61195c81610d3b565b1561199c576040517f08c379a00000000000000000000000000000000000000000000000000000000081526004016119939061223e565b60405180910390fd5b6119a860008383611668565b6001600360008473ffffffffffffffffffffffffffffffffffffffff1673ffffffffffffffffffffffffffffffffffffffff16815260200190815260200160002060008282546119f89190612492565b92505081905550816002600083815260200190815260200160002060006101000a81548173ffffffffffffffffffffffffffffffffffffffff021916908373ffffffffffffffffffffffffffffffffffffffff160217905550808273ffffffffffffffffffffffffffffffffffffffff16600073ffffffffffffffffffffffffffffffffffffffff167fddf252ad1be2c89b69c2b068fc378daa952ba7f163c4a11628f55a4df523b3ef60405160405180910390a4611ab9600083836116e7565b5050565b6000808273ffffffffffffffffffffffffffffffffffffffff163b119050919050565b6000611af3611aee8461241e565b6123f9565b905082815260208101848484011115611b0b57600080fd5b611b168482856125c1565b509392505050565b600081359050611b2d81612c2e565b92915050565b600081359050611b4281612c45565b92915050565b600081359050611b5781612c5c565b92915050565b600081519050611b6c81612c5c565b92915050565b600082601f830112611b8357600080fd5b8135611b93848260208601611ae0565b91505092915050565b600081359050611bab81612c73565b92915050565b600060208284031215611bc357600080fd5b6000611bd184828501611b1e565b91505092915050565b60008060408385031215611bed57600080fd5b6000611bfb85828601611b1e565b9250506020611c0c85828601611b1e565b9150509250929050565b600080600060608486031215611c2b57600080fd5b6000611c3986828701611b1e565b9350506020611c4a86828701611b1e565b9250506040611c5b86828701611b9c565b9150509250925092565b60008060008060808587031215611c7b57600080fd5b6000611c8987828801611b1e565b9450506020611c9a87828801611b1e565b9350506040611cab87828801611b9c565b925050606085013567ffffffffffffffff811115611cc857600080fd5b611cd487828801611b72565b91505092959194509250565b60008060408385031215611cf357600080fd5b6000611d0185828601611b1e565b9250506020611d1285828601611b33565b9150509250929050565b60008060408385031215611d2f57600080fd5b6000611d3d85828601611b1e565b9250506020611d4e85828601611b9c565b9150509250929050565b600060208284031215611d6a57600080fd5b6000611d7884828501611b48565b91505092915050565b600060208284031215611d9357600080fd5b6000611da184828501611b5d565b91505092915050565b600060208284031215611dbc57600080fd5b6000611dca84828501611b9c565b91505092915050565b611ddc8161254d565b82525050565b611deb8161255f565b82525050565b6000611dfc8261244f565b611e068185612465565b9350611e168185602086016125d0565b611e1f8161279c565b840191505092915050565b6000611e358261245a565b611e3f8185612476565b9350611e4f8185602086016125d0565b611e588161279c565b840191505092915050565b6000611e6e8261245a565b611e788185612487565b9350611e888185602086016125d0565b80840191505092915050565b6000611ea1601883612476565b9150611eac826127ad565b602082019050919050565b6000611ec4603283612476565b9150611ecf826127d6565b604082019050919050565b6000611ee7602683612476565b9150611ef282612825565b604082019050919050565b6000611f0a602583612476565b9150611f1582612874565b604082019050919050565b6000611f2d601c83612476565b9150611f38826128c3565b602082019050919050565b6000611f50602483612476565b9150611f5b826128ec565b604082019050919050565b6000611f73601983612476565b9150611f7e8261293b565b602082019050919050565b6000611f96602c83612476565b9150611fa182612964565b604082019050919050565b6000611fb9603883612476565b9150611fc4826129b3565b604082019050919050565b6000611fdc602a83612476565b9150611fe782612a02565b604082019050919050565b6000611fff602983612476565b915061200a82612a51565b604082019050919050565b6000612022602083612476565b915061202d82612aa0565b602082019050919050565b6000612045602c83612476565b915061205082612ac9565b604082019050919050565b6000612068602083612476565b915061207382612b18565b602082019050919050565b600061208b602f83612476565b915061209682612b41565b604082019050919050565b60006120ae602183612476565b91506120b982612b90565b604082019050919050565b60006120d1603183612476565b91506120dc82612bdf565b604082019050919050565b6120f0816125b7565b82525050565b60006121028285611e63565b915061210e8284611e63565b91508190509392505050565b600060208201905061212f6000830184611dd3565b92915050565b600060808201905061214a6000830187611dd3565b6121576020830186611dd3565b61216460408301856120e7565b81810360608301526121768184611df1565b905095945050505050565b60006020820190506121966000830184611de2565b92915050565b600060208201905081810360008301526121b68184611e2a565b905092915050565b600060208201905081810360008301526121d781611e94565b9050919050565b600060208201905081810360008301526121f781611eb7565b9050919050565b6000602082019050818103600083015261221781611eda565b9050919050565b6000602082019050818103600083015261223781611efd565b9050919050565b6000602082019050818103600083015261225781611f20565b9050919050565b6000602082019050818103600083015261227781611f43565b9050919050565b6000602082019050818103600083015261229781611f66565b9050919050565b600060208201905081810360008301526122b781611f89565b9050919050565b600060208201905081810360008301526122d781611fac565b9050919050565b600060208201905081810360008301526122f781611fcf565b9050919050565b6000602082019050818103600083015261231781611ff2565b9050919050565b6000602082019050818103600083015261233781612015565b9050919050565b6000602082019050818103600083015261235781612038565b9050919050565b600060208201905081810360008301526123778161205b565b9050919050565b600060208201905081810360008301526123978161207e565b9050919050565b600060208201905081810360008301526123b7816120a1565b9050919050565b600060208201905081810360008301526123d7816120c4565b9050919050565b60006020820190506123f360008301846120e7565b92915050565b6000612403612414565b905061240f8282612635565b919050565b6000604051905090565b600067ffffffffffffffff8211156124395761243861276d565b5b6124428261279c565b9050602081019050919050565b600081519050919050565b600081519050919050565b600082825260208201905092915050565b600082825260208201905092915050565b600081905092915050565b600061249d826125b7565b91506124a8836125b7565b9250827fffffffffffffffffffffffffffffffffffffffffffffffffffffffffffffffff038211156124dd576124dc6126e0565b5b828201905092915050565b60006124f3826125b7565b91506124fe836125b7565b92508261250e5761250d61270f565b5b828204905092915050565b6000612524826125b7565b915061252f836125b7565b925082821015612542576125416126e0565b5b828203905092915050565b600061255882612597565b9050919050565b60008115159050919050565b60007fffffffff0000000000000000000000000000000000000000000000000000000082169050919050565b600073ffffffffffffffffffffffffffffffffffffffff82169050919050565b6000819050919050565b82818337600083830152505050565b60005b838110156125ee5780820151818401526020810190506125d3565b838111156125fd576000848401525b50505050565b6000600282049050600182168061261b57607f821691505b6020821081141561262f5761262e61273e565b5b50919050565b61263e8261279c565b810181811067ffffffffffffffff8211171561265d5761265c61276d565b5b80604052505050565b6000612671826125b7565b91507fffffffffffffffffffffffffffffffffffffffffffffffffffffffffffffffff8214156126a4576126a36126e0565b5b600182019050919050565b60006126ba826125b7565b91506126c5836125b7565b9250826126d5576126d461270f565b5b828206905092915050565b7f4e487b7100000000000000000000000000000000000000000000000000000000600052601160045260246000fd5b7f4e487b7100000000000000000000000000000000000000000000000000000000600052601260045260246000fd5b7f4e487b7100000000000000000000000000000000000000000000000000000000600052602260045260246000fd5b7f4e487b7100000000000000000000000000000000000000000000000000000000600052604160045260246000fd5b6000601f19601f8301169050919050565b7f4572723a20746f6b656e20697320534f554c20424f554e440000000000000000600082015250565b7f4552433732313a207472616e7366657220746f206e6f6e20455243373231526560008201527f63656976657220696d706c656d656e7465720000000000000000000000000000602082015250565b7f4f776e61626c653a206e6577206f776e657220697320746865207a65726f206160008201527f6464726573730000000000000000000000000000000000000000000000000000602082015250565b7f4552433732313a207472616e736665722066726f6d20696e636f72726563742060008201527f6f776e6572000000000000000000000000000000000000000000000000000000602082015250565b7f4552433732313a20746f6b656e20616c7265616479206d696e74656400000000600082015250565b7f4552433732313a207472616e7366657220746f20746865207a65726f2061646460008201527f7265737300000000000000000000000000000000000000000000000000000000602082015250565b7f4552433732313a20617070726f766520746f2063616c6c657200000000000000600082015250565b7f4552433732313a206f70657261746f7220717565727920666f72206e6f6e657860008201527f697374656e7420746f6b656e0000000000000000000000000000000000000000602082015250565b7f4552433732313a20617070726f76652063616c6c6572206973206e6f74206f7760008201527f6e6572206e6f7220617070726f76656420666f7220616c6c0000000000000000602082015250565b7f4552433732313a2062616c616e636520717565727920666f7220746865207a6560008201527f726f206164647265737300000000000000000000000000000000000000000000602082015250565b7f4552433732313a206f776e657220717565727920666f72206e6f6e657869737460008201527f656e7420746f6b656e0000000000000000000000000000000000000000000000602082015250565b7f4552433732313a206d696e7420746f20746865207a65726f2061646472657373600082015250565b7f4552433732313a20617070726f76656420717565727920666f72206e6f6e657860008201527f697374656e7420746f6b656e0000000000000000000000000000000000000000602082015250565b7f4f776e61626c653a2063616c6c6572206973206e6f7420746865206f776e6572600082015250565b7f4552433732314d657461646174613a2055524920717565727920666f72206e6f60008201527f6e6578697374656e7420746f6b656e0000000000000000000000000000000000602082015250565b7f4552433732313a20617070726f76616c20746f2063757272656e74206f776e6560008201527f7200000000000000000000000000000000000000000000000000000000000000602082015250565b7f4552433732313a207472616e736665722063616c6c6572206973206e6f74206f60008201527f776e6572206e6f7220617070726f766564000000000000000000000000000000602082015250565b612c378161254d565b8114612c4257600080fd5b50565b612c4e8161255f565b8114612c5957600080fd5b50565b612c658161256b565b8114612c7057600080fd5b50565b612c7c816125b7565b8114612c8757600080fd5b5056fea2646970667358221220cfc6645de46c9cb5155a729555576bd07ec5bbfaf28a4774b7a3878089056fba64736f6c63430008040033",
  "linkReferences": {},
  "deployedLinkReferences": {}
}