{
  "_format": "hh-sol-artifact-1",
  "contractName": "BurnMyWallet",
  "sourceName": "contracts/nft.sol",
  "abi": [
    {
      "inputs": [],
      "stateMutability": "nonpayable",
      "type": "constructor"
    },
    {
      "anonymous": false,
      "inputs": [
        {
          "indexed": true,
          "internalType": "address",
          "name": "owner",
          "type": "address"
        },
        {
          "indexed": true,
          "internalType": "address",
          "name": "approved",
          "type": "address"
        },
        {
          "indexed": true,
          "internalType": "uint256",
          "name": "tokenId",
          "type": "uint256"
        }
      ],
      "name": "Approval",
      "type": "event"
    },
    {
      "anonymous": false,
      "inputs": [
        {
          "indexed": true,
          "internalType": "address",
          "name": "owner",
          "type": "address"
        },
        {
          "indexed": true,
          "internalType": "address",
          "name": "operator",
          "type": "address"
        },
        {
          "indexed": false,
          "internalType": "bool",
          "name": "approved",
          "type": "bool"
        }
      ],
      "name": "ApprovalForAll",
      "type": "event"
    },
    {
      "anonymous": false,
      "inputs": [
        {
          "indexed": true,
          "internalType": "address",
          "name": "previousOwner",
          "type": "address"
        },
        {
          "indexed": true,
          "internalType": "address",
          "name": "newOwner",
          "type": "address"
        }
      ],
      "name": "OwnershipTransferred",
      "type": "event"
    },
    {
      "anonymous": false,
      "inputs": [
        {
          "indexed": true,
          "internalType": "address",
          "name": "from",
          "type": "address"
        },
        {
          "indexed": true,
          "internalType": "address",
          "name": "to",
          "type": "address"
        },
        {
          "indexed": true,
          "internalType": "uint256",
          "name": "tokenId",
          "type": "uint256"
        }
      ],
      "name": "Transfer",
      "type": "event"
    },
    {
      "inputs": [
        {
          "internalType": "address",
          "name": "to",
          "type": "address"
        },
        {
          "internalType": "uint256",
          "name": "tokenId",
          "type": "uint256"
        }
      ],
      "name": "approve",
      "outputs": [],
      "stateMutability": "nonpayable",
      "type": "function"
    },
    {
      "inputs": [
        {
          "internalType": "address",
          "name": "owner",
          "type": "address"
        }
      ],
      "name": "balanceOf",
      "outputs": [
        {
          "internalType": "uint256",
          "name": "",
          "type": "uint256"
        }
      ],
      "stateMutability": "view",
      "type": "function"
    },
    {
      "inputs": [
        {
          "internalType": "uint256",
          "name": "tokenId",
          "type": "uint256"
        }
      ],
      "name": "getApproved",
      "outputs": [
        {
          "internalType": "address",
          "name": "",
          "type": "address"
        }
      ],
      "stateMutability": "view",
      "type": "function"
    },
    {
      "inputs": [
        {
          "internalType": "address",
          "name": "owner",
          "type": "address"
        },
        {
          "internalType": "address",
          "name": "operator",
          "type": "address"
        }
      ],
      "name": "isApprovedForAll",
      "outputs": [
        {
          "internalType": "bool",
          "name": "",
          "type": "bool"
        }
      ],
      "stateMutability": "view",
      "type": "function"
    },
    {
      "inputs": [],
      "name": "name",
      "outputs": [
        {
          "internalType": "string",
          "name": "",
          "type": "string"
        }
      ],
      "stateMutability": "view",
      "type": "function"
    },
    {
      "inputs": [],
      "name": "owner",
      "outputs": [
        {
          "internalType": "address",
          "name": "",
          "type": "address"
        }
      ],
      "stateMutability": "view",
      "type": "function"
    },
    {
      "inputs": [
        {
          "internalType": "uint256",
          "name": "tokenId",
          "type": "uint256"
        }
      ],
      "name": "ownerOf",
      "outputs": [
        {
          "internalType": "address",
          "name": "",
          "type": "address"
        }
      ],
      "stateMutability": "view",
      "type": "function"
    },
    {
      "inputs": [],
      "name": "renounceOwnership",
      "outputs": [],
      "stateMutability": "nonpayable",
      "type": "function"
    },
    {
      "inputs": [],
      "name": "safeMint",
      "outputs": [],
      "stateMutability": "nonpayable",
      "type": "function"
    },
    {
      "inputs": [
        {
          "internalType": "address",
          "name": "from",
          "type": "address"
        },
        {
          "internalType": "address",
          "name": "to",
          "type": "address"
        },
        {
          "internalType": "uint256",
          "name": "tokenId",
          "type": "uint256"
        }
      ],
      "name": "safeTransferFrom",
      "outputs": [],
      "stateMutability": "nonpayable",
      "type": "function"
    },
    {
      "inputs": [
        {
          "internalType": "address",
          "name": "from",
          "type": "address"
        },
        {
          "internalType": "address",
          "name": "to",
          "type": "address"
        },
        {
          "internalType": "uint256",
          "name": "tokenId",
          "type": "uint256"
        },
        {
          "internalType": "bytes",
          "name": "_data",
          "type": "bytes"
        }
      ],
      "name": "safeTransferFrom",
      "outputs": [],
      "stateMutability": "nonpayable",
      "type": "function"
    },
    {
      "inputs": [
        {
          "internalType": "address",
          "name": "operator",
          "type": "address"
        },
        {
          "internalType": "bool",
          "name": "approved",
          "type": "bool"
        }
      ],
      "name": "setApprovalForAll",
      "outputs": [],
      "stateMutability": "nonpayable",
      "type": "function"
    },
    {
      "inputs": [
        {
          "internalType": "bytes4",
          "name": "interfaceId",
          "type": "bytes4"
        }
      ],
      "name": "supportsInterface",
      "outputs": [
        {
          "internalType": "bool",
          "name": "",
          "type": "bool"
        }
      ],
      "stateMutability": "view",
      "type": "function"
    },
    {
      "inputs": [],
      "name": "symbol",
      "outputs": [
        {
          "internalType": "string",
          "name": "",
          "type": "string"
        }
      ],
      "stateMutability": "view",
      "type": "function"
    },
    {
      "inputs": [
        {
          "internalType": "uint256",
          "name": "tokenId",
          "type": "uint256"
        }
      ],
      "name": "tokenURI",
      "outputs": [
        {
          "internalType": "string",
          "name": "",
          "type": "string"
        }
      ],
      "stateMutability": "view",
      "type": "function"
    },
    {
      "inputs": [
        {
          "internalType": "address",
          "name": "from",
          "type": "address"
        },
        {
          "internalType": "address",
          "name": "to",
          "type": "address"
        },
        {
          "internalType": "uint256",
          "name": "tokenId",
          "type": "uint256"
        }
      ],
      "name": "transferFrom",
      "outputs": [],
      "stateMutability": "nonpayable",
      "type": "function"
    },
    {
      "inputs": [
        {
          "internalType": "address",
          "name": "newOwner",
          "type": "address"
        }
      ],
      "name": "transferOwnership",
      "outputs": [],
      "stateMutability": "nonpayable",
      "type": "function"
    }
  ],
  "bytecode": "0x60806040523480156200001157600080fd5b506040518060400160405280600c81526020017f4275726e4d7957616c6c657400000000000000000000000000000000000000008152506040518060400160405280600481526020017f4255524e00000000000000000000000000000000000000000000000000000000815250816000908051906020019062000096929190620001a6565b508060019080519060200190620000af929190620001a6565b505050620000d2620000c6620000d860201b60201c565b620000e060201b60201c565b620002bb565b600033905090565b6000600660009054906101000a900473ffffffffffffffffffffffffffffffffffffffff16905081600660006101000a81548173ffffffffffffffffffffffffffffffffffffffff021916908373ffffffffffffffffffffffffffffffffffffffff1602179055508173ffffffffffffffffffffffffffffffffffffffff168173ffffffffffffffffffffffffffffffffffffffff167f8be0079c531659141344cd1fd0a4f28419497f9722a3daafe3b4186f6b6457e060405160405180910390a35050565b828054620001b49062000256565b90600052602060002090601f016020900481019282620001d8576000855562000224565b82601f10620001f357805160ff191683800117855562000224565b8280016001018555821562000224579182015b828111156200022357825182559160200191906001019062000206565b5b50905062000233919062000237565b5090565b5b808211156200025257600081600090555060010162000238565b5090565b600060028204905060018216806200026f57607f821691505b602082108114156200028657620002856200028c565b5b50919050565b7f4e487b7100000000000000000000000000000000000000000000000000000000600052602260045260246000fd5b612c4480620002cb6000396000f3fe608060405234801561001057600080fd5b506004361061010b5760003560e01c806370a08231116100a2578063a22cb46511610071578063a22cb46514610292578063b88d4fde146102ae578063c87b56dd146102ca578063e985e9c5146102fa578063f2fde38b1461032a5761010b565b806370a082311461021c578063715018a61461024c5780638da5cb5b1461025657806395d89b41146102745761010b565b806323b872dd116100de57806323b872dd146101aa57806342842e0e146101c65780636352211e146101e25780636871ee40146102125761010b565b806301ffc9a71461011057806306fdde0314610140578063081812fc1461015e578063095ea7b31461018e575b600080fd5b61012a60048036038101906101259190611cdc565b610346565b6040516101379190612105565b60405180910390f35b610148610428565b6040516101559190612120565b60405180910390f35b61017860048036038101906101739190611d2e565b6104ba565b604051610185919061209e565b60405180910390f35b6101a860048036038101906101a39190611ca0565b61053f565b005b6101c460048036038101906101bf9190611b9a565b610657565b005b6101e060048036038101906101db9190611b9a565b6106b7565b005b6101fc60048036038101906101f79190611d2e565b6106d7565b604051610209919061209e565b60405180910390f35b61021a610789565b005b61023660048036038101906102319190611b35565b6107ae565b6040516102439190612362565b60405180910390f35b610254610866565b005b61025e6108ee565b60405161026b919061209e565b60405180910390f35b61027c610918565b6040516102899190612120565b60405180910390f35b6102ac60048036038101906102a79190611c64565b6109aa565b005b6102c860048036038101906102c39190611be9565b6109c0565b005b6102e460048036038101906102df9190611d2e565b610a22565b6040516102f19190612120565b60405180910390f35b610314600480360381019061030f9190611b5e565b610ac9565b6040516103219190612105565b60405180910390f35b610344600480360381019061033f9190611b35565b610b5d565b005b60007f80ac58cd000000000000000000000000000000000000000000000000000000007bffffffffffffffffffffffffffffffffffffffffffffffffffffffff1916827bffffffffffffffffffffffffffffffffffffffffffffffffffffffff1916148061041157507f5b5e139f000000000000000000000000000000000000000000000000000000007bffffffffffffffffffffffffffffffffffffffffffffffffffffffff1916827bffffffffffffffffffffffffffffffffffffffffffffffffffffffff1916145b80610421575061042082610c55565b5b9050919050565b60606000805461043790612587565b80601f016020809104026020016040519081016040528092919081815260200182805461046390612587565b80156104b05780601f10610485576101008083540402835291602001916104b0565b820191906000526020600020905b81548152906001019060200180831161049357829003601f168201915b5050505050905090565b60006104c582610cbf565b610504576040517f08c379a00000000000000000000000000000000000000000000000000000000081526004016104fb906122c2565b60405180910390fd5b6004600083815260200190815260200160002060009054906101000a900473ffffffffffffffffffffffffffffffffffffffff169050919050565b600061054a826106d7565b90508073ffffffffffffffffffffffffffffffffffffffff168373ffffffffffffffffffffffffffffffffffffffff1614156105bb576040517f08c379a00000000000000000000000000000000000000000000000000000000081526004016105b290612322565b60405180910390fd5b8073ffffffffffffffffffffffffffffffffffffffff166105da610d2b565b73ffffffffffffffffffffffffffffffffffffffff161480610609575061060881610603610d2b565b610ac9565b5b610648576040517f08c379a000000000000000000000000000000000000000000000000000000000815260040161063f90612242565b60405180910390fd5b6106528383610d33565b505050565b610668610662610d2b565b82610dec565b6106a7576040517f08c379a000000000000000000000000000000000000000000000000000000000815260040161069e90612342565b60405180910390fd5b6106b2838383610eca565b505050565b6106d2838383604051806020016040528060008152506109c0565b505050565b6000806002600084815260200190815260200160002060009054906101000a900473ffffffffffffffffffffffffffffffffffffffff169050600073ffffffffffffffffffffffffffffffffffffffff168173ffffffffffffffffffffffffffffffffffffffff161415610780576040517f08c379a000000000000000000000000000000000000000000000000000000000815260040161077790612282565b60405180910390fd5b80915050919050565b60006107956007611131565b90506107a1600761113f565b6107ab3382611155565b50565b60008073ffffffffffffffffffffffffffffffffffffffff168273ffffffffffffffffffffffffffffffffffffffff16141561081f576040517f08c379a000000000000000000000000000000000000000000000000000000000815260040161081690612262565b60405180910390fd5b600360008373ffffffffffffffffffffffffffffffffffffffff1673ffffffffffffffffffffffffffffffffffffffff168152602001908152602001600020549050919050565b61086e610d2b565b73ffffffffffffffffffffffffffffffffffffffff1661088c6108ee565b73ffffffffffffffffffffffffffffffffffffffff16146108e2576040517f08c379a00000000000000000000000000000000000000000000000000000000081526004016108d9906122e2565b60405180910390fd5b6108ec6000611173565b565b6000600660009054906101000a900473ffffffffffffffffffffffffffffffffffffffff16905090565b60606001805461092790612587565b80601f016020809104026020016040519081016040528092919081815260200182805461095390612587565b80156109a05780601f10610975576101008083540402835291602001916109a0565b820191906000526020600020905b81548152906001019060200180831161098357829003601f168201915b5050505050905090565b6109bc6109b5610d2b565b8383611239565b5050565b6109d16109cb610d2b565b83610dec565b610a10576040517f08c379a0000000000000000000000000000000000000000000000000000000008152600401610a0790612342565b60405180910390fd5b610a1c848484846113a6565b50505050565b6060610a2d82610cbf565b610a6c576040517f08c379a0000000000000000000000000000000000000000000000000000000008152600401610a6390612302565b60405180910390fd5b6000610a76611402565b90506000815111610a965760405180602001604052806000815250610ac1565b80610aa08461143f565b604051602001610ab192919061207a565b6040516020818303038152906040525b915050919050565b6000600560008473ffffffffffffffffffffffffffffffffffffffff1673ffffffffffffffffffffffffffffffffffffffff16815260200190815260200160002060008373ffffffffffffffffffffffffffffffffffffffff1673ffffffffffffffffffffffffffffffffffffffff16815260200190815260200160002060009054906101000a900460ff16905092915050565b610b65610d2b565b73ffffffffffffffffffffffffffffffffffffffff16610b836108ee565b73ffffffffffffffffffffffffffffffffffffffff1614610bd9576040517f08c379a0000000000000000000000000000000000000000000000000000000008152600401610bd0906122e2565b60405180910390fd5b600073ffffffffffffffffffffffffffffffffffffffff168173ffffffffffffffffffffffffffffffffffffffff161415610c49576040517f08c379a0000000000000000000000000000000000000000000000000000000008152600401610c4090612182565b60405180910390fd5b610c5281611173565b50565b60007f01ffc9a7000000000000000000000000000000000000000000000000000000007bffffffffffffffffffffffffffffffffffffffffffffffffffffffff1916827bffffffffffffffffffffffffffffffffffffffffffffffffffffffff1916149050919050565b60008073ffffffffffffffffffffffffffffffffffffffff166002600084815260200190815260200160002060009054906101000a900473ffffffffffffffffffffffffffffffffffffffff1673ffffffffffffffffffffffffffffffffffffffff1614159050919050565b600033905090565b816004600083815260200190815260200160002060006101000a81548173ffffffffffffffffffffffffffffffffffffffff021916908373ffffffffffffffffffffffffffffffffffffffff160217905550808273ffffffffffffffffffffffffffffffffffffffff16610da6836106d7565b73ffffffffffffffffffffffffffffffffffffffff167f8c5be1e5ebec7d5bd14f71427d1e84f3dd0314c0f7b2291e5b200ac8c7c3b92560405160405180910390a45050565b6000610df782610cbf565b610e36576040517f08c379a0000000000000000000000000000000000000000000000000000000008152600401610e2d90612222565b60405180910390fd5b6000610e41836106d7565b90508073ffffffffffffffffffffffffffffffffffffffff168473ffffffffffffffffffffffffffffffffffffffff161480610e835750610e828185610ac9565b5b80610ec157508373ffffffffffffffffffffffffffffffffffffffff16610ea9846104ba565b73ffffffffffffffffffffffffffffffffffffffff16145b91505092915050565b8273ffffffffffffffffffffffffffffffffffffffff16610eea826106d7565b73ffffffffffffffffffffffffffffffffffffffff1614610f40576040517f08c379a0000000000000000000000000000000000000000000000000000000008152600401610f37906121a2565b60405180910390fd5b600073ffffffffffffffffffffffffffffffffffffffff168273ffffffffffffffffffffffffffffffffffffffff161415610fb0576040517f08c379a0000000000000000000000000000000000000000000000000000000008152600401610fa7906121e2565b60405180910390fd5b610fbb8383836115ec565b610fc6600082610d33565b6001600360008573ffffffffffffffffffffffffffffffffffffffff1673ffffffffffffffffffffffffffffffffffffffff1681526020019081526020016000206000828254611016919061249d565b925050819055506001600360008473ffffffffffffffffffffffffffffffffffffffff1673ffffffffffffffffffffffffffffffffffffffff168152602001908152602001600020600082825461106d9190612416565b92505081905550816002600083815260200190815260200160002060006101000a81548173ffffffffffffffffffffffffffffffffffffffff021916908373ffffffffffffffffffffffffffffffffffffffff160217905550808273ffffffffffffffffffffffffffffffffffffffff168473ffffffffffffffffffffffffffffffffffffffff167fddf252ad1be2c89b69c2b068fc378daa952ba7f163c4a11628f55a4df523b3ef60405160405180910390a461112c83838361166b565b505050565b600081600001549050919050565b6001816000016000828254019250508190555050565b61116f828260405180602001604052806000815250611670565b5050565b6000600660009054906101000a900473ffffffffffffffffffffffffffffffffffffffff16905081600660006101000a81548173ffffffffffffffffffffffffffffffffffffffff021916908373ffffffffffffffffffffffffffffffffffffffff1602179055508173ffffffffffffffffffffffffffffffffffffffff168173ffffffffffffffffffffffffffffffffffffffff167f8be0079c531659141344cd1fd0a4f28419497f9722a3daafe3b4186f6b6457e060405160405180910390a35050565b8173ffffffffffffffffffffffffffffffffffffffff168373ffffffffffffffffffffffffffffffffffffffff1614156112a8576040517f08c379a000000000000000000000000000000000000000000000000000000000815260040161129f90612202565b60405180910390fd5b80600560008573ffffffffffffffffffffffffffffffffffffffff1673ffffffffffffffffffffffffffffffffffffffff16815260200190815260200160002060008473ffffffffffffffffffffffffffffffffffffffff1673ffffffffffffffffffffffffffffffffffffffff16815260200190815260200160002060006101000a81548160ff0219169083151502179055508173ffffffffffffffffffffffffffffffffffffffff168373ffffffffffffffffffffffffffffffffffffffff167f17307eab39ab6107e8899845ad3d59bd9653f200f220920489ca2b5937696c31836040516113999190612105565b60405180910390a3505050565b6113b1848484610eca565b6113bd848484846116cb565b6113fc576040517f08c379a00000000000000000000000000000000000000000000000000000000081526004016113f390612162565b60405180910390fd5b50505050565b60606040518060400160405280601981526020017f68747470733a2f2f6275726e6d7977616c6c65742e636f6d2f00000000000000815250905090565b60606000821415611487576040518060400160405280600181526020017f300000000000000000000000000000000000000000000000000000000000000081525090506115e7565b600082905060005b600082146114b95780806114a2906125ea565b915050600a826114b2919061246c565b915061148f565b60008167ffffffffffffffff8111156114fb577f4e487b7100000000000000000000000000000000000000000000000000000000600052604160045260246000fd5b6040519080825280601f01601f19166020018201604052801561152d5781602001600182028036833780820191505090505b5090505b600085146115e057600182611546919061249d565b9150600a856115559190612633565b60306115619190612416565b60f81b81838151811061159d577f4e487b7100000000000000000000000000000000000000000000000000000000600052603260045260246000fd5b60200101907effffffffffffffffffffffffffffffffffffffffffffffffffffffffffffff1916908160001a905350600a856115d9919061246c565b9450611531565b8093505050505b919050565b600073ffffffffffffffffffffffffffffffffffffffff168373ffffffffffffffffffffffffffffffffffffffff161461165b576040517f08c379a000000000000000000000000000000000000000000000000000000000815260040161165290612142565b60405180910390fd5b611666838383611862565b505050565b505050565b61167a8383611867565b61168760008484846116cb565b6116c6576040517f08c379a00000000000000000000000000000000000000000000000000000000081526004016116bd90612162565b60405180910390fd5b505050565b60006116ec8473ffffffffffffffffffffffffffffffffffffffff16611a41565b15611855578373ffffffffffffffffffffffffffffffffffffffff1663150b7a02611715610d2b565b8786866040518563ffffffff1660e01b815260040161173794939291906120b9565b602060405180830381600087803b15801561175157600080fd5b505af192505050801561178257506040513d601f19601f8201168201806040525081019061177f9190611d05565b60015b611805573d80600081146117b2576040519150601f19603f3d011682016040523d82523d6000602084013e6117b7565b606091505b506000815114156117fd576040517f08c379a00000000000000000000000000000000000000000000000000000000081526004016117f490612162565b60405180910390fd5b805181602001fd5b63150b7a0260e01b7bffffffffffffffffffffffffffffffffffffffffffffffffffffffff1916817bffffffffffffffffffffffffffffffffffffffffffffffffffffffff19161491505061185a565b600190505b949350505050565b505050565b600073ffffffffffffffffffffffffffffffffffffffff168273ffffffffffffffffffffffffffffffffffffffff1614156118d7576040517f08c379a00000000000000000000000000000000000000000000000000000000081526004016118ce906122a2565b60405180910390fd5b6118e081610cbf565b15611920576040517f08c379a0000000000000000000000000000000000000000000000000000000008152600401611917906121c2565b60405180910390fd5b61192c600083836115ec565b6001600360008473ffffffffffffffffffffffffffffffffffffffff1673ffffffffffffffffffffffffffffffffffffffff168152602001908152602001600020600082825461197c9190612416565b92505081905550816002600083815260200190815260200160002060006101000a81548173ffffffffffffffffffffffffffffffffffffffff021916908373ffffffffffffffffffffffffffffffffffffffff160217905550808273ffffffffffffffffffffffffffffffffffffffff16600073ffffffffffffffffffffffffffffffffffffffff167fddf252ad1be2c89b69c2b068fc378daa952ba7f163c4a11628f55a4df523b3ef60405160405180910390a4611a3d6000838361166b565b5050565b6000808273ffffffffffffffffffffffffffffffffffffffff163b119050919050565b6000611a77611a72846123a2565b61237d565b905082815260208101848484011115611a8f57600080fd5b611a9a848285612545565b509392505050565b600081359050611ab181612bb2565b92915050565b600081359050611ac681612bc9565b92915050565b600081359050611adb81612be0565b92915050565b600081519050611af081612be0565b92915050565b600082601f830112611b0757600080fd5b8135611b17848260208601611a64565b91505092915050565b600081359050611b2f81612bf7565b92915050565b600060208284031215611b4757600080fd5b6000611b5584828501611aa2565b91505092915050565b60008060408385031215611b7157600080fd5b6000611b7f85828601611aa2565b9250506020611b9085828601611aa2565b9150509250929050565b600080600060608486031215611baf57600080fd5b6000611bbd86828701611aa2565b9350506020611bce86828701611aa2565b9250506040611bdf86828701611b20565b9150509250925092565b60008060008060808587031215611bff57600080fd5b6000611c0d87828801611aa2565b9450506020611c1e87828801611aa2565b9350506040611c2f87828801611b20565b925050606085013567ffffffffffffffff811115611c4c57600080fd5b611c5887828801611af6565b91505092959194509250565b60008060408385031215611c7757600080fd5b6000611c8585828601611aa2565b9250506020611c9685828601611ab7565b9150509250929050565b60008060408385031215611cb357600080fd5b6000611cc185828601611aa2565b9250506020611cd285828601611b20565b9150509250929050565b600060208284031215611cee57600080fd5b6000611cfc84828501611acc565b91505092915050565b600060208284031215611d1757600080fd5b6000611d2584828501611ae1565b91505092915050565b600060208284031215611d4057600080fd5b6000611d4e84828501611b20565b91505092915050565b611d60816124d1565b82525050565b611d6f816124e3565b82525050565b6000611d80826123d3565b611d8a81856123e9565b9350611d9a818560208601612554565b611da381612720565b840191505092915050565b6000611db9826123de565b611dc381856123fa565b9350611dd3818560208601612554565b611ddc81612720565b840191505092915050565b6000611df2826123de565b611dfc818561240b565b9350611e0c818560208601612554565b80840191505092915050565b6000611e256018836123fa565b9150611e3082612731565b602082019050919050565b6000611e486032836123fa565b9150611e538261275a565b604082019050919050565b6000611e6b6026836123fa565b9150611e76826127a9565b604082019050919050565b6000611e8e6025836123fa565b9150611e99826127f8565b604082019050919050565b6000611eb1601c836123fa565b9150611ebc82612847565b602082019050919050565b6000611ed46024836123fa565b9150611edf82612870565b604082019050919050565b6000611ef76019836123fa565b9150611f02826128bf565b602082019050919050565b6000611f1a602c836123fa565b9150611f25826128e8565b604082019050919050565b6000611f3d6038836123fa565b9150611f4882612937565b604082019050919050565b6000611f60602a836123fa565b9150611f6b82612986565b604082019050919050565b6000611f836029836123fa565b9150611f8e826129d5565b604082019050919050565b6000611fa66020836123fa565b9150611fb182612a24565b602082019050919050565b6000611fc9602c836123fa565b9150611fd482612a4d565b604082019050919050565b6000611fec6020836123fa565b9150611ff782612a9c565b602082019050919050565b600061200f602f836123fa565b915061201a82612ac5565b604082019050919050565b60006120326021836123fa565b915061203d82612b14565b604082019050919050565b60006120556031836123fa565b915061206082612b63565b604082019050919050565b6120748161253b565b82525050565b60006120868285611de7565b91506120928284611de7565b91508190509392505050565b60006020820190506120b36000830184611d57565b92915050565b60006080820190506120ce6000830187611d57565b6120db6020830186611d57565b6120e8604083018561206b565b81810360608301526120fa8184611d75565b905095945050505050565b600060208201905061211a6000830184611d66565b92915050565b6000602082019050818103600083015261213a8184611dae565b905092915050565b6000602082019050818103600083015261215b81611e18565b9050919050565b6000602082019050818103600083015261217b81611e3b565b9050919050565b6000602082019050818103600083015261219b81611e5e565b9050919050565b600060208201905081810360008301526121bb81611e81565b9050919050565b600060208201905081810360008301526121db81611ea4565b9050919050565b600060208201905081810360008301526121fb81611ec7565b9050919050565b6000602082019050818103600083015261221b81611eea565b9050919050565b6000602082019050818103600083015261223b81611f0d565b9050919050565b6000602082019050818103600083015261225b81611f30565b9050919050565b6000602082019050818103600083015261227b81611f53565b9050919050565b6000602082019050818103600083015261229b81611f76565b9050919050565b600060208201905081810360008301526122bb81611f99565b9050919050565b600060208201905081810360008301526122db81611fbc565b9050919050565b600060208201905081810360008301526122fb81611fdf565b9050919050565b6000602082019050818103600083015261231b81612002565b9050919050565b6000602082019050818103600083015261233b81612025565b9050919050565b6000602082019050818103600083015261235b81612048565b9050919050565b6000602082019050612377600083018461206b565b92915050565b6000612387612398565b905061239382826125b9565b919050565b6000604051905090565b600067ffffffffffffffff8211156123bd576123bc6126f1565b5b6123c682612720565b9050602081019050919050565b600081519050919050565b600081519050919050565b600082825260208201905092915050565b600082825260208201905092915050565b600081905092915050565b60006124218261253b565b915061242c8361253b565b9250827fffffffffffffffffffffffffffffffffffffffffffffffffffffffffffffffff0382111561246157612460612664565b5b828201905092915050565b60006124778261253b565b91506124828361253b565b92508261249257612491612693565b5b828204905092915050565b60006124a88261253b565b91506124b38361253b565b9250828210156124c6576124c5612664565b5b828203905092915050565b60006124dc8261251b565b9050919050565b60008115159050919050565b60007fffffffff0000000000000000000000000000000000000000000000000000000082169050919050565b600073ffffffffffffffffffffffffffffffffffffffff82169050919050565b6000819050919050565b82818337600083830152505050565b60005b83811015612572578082015181840152602081019050612557565b83811115612581576000848401525b50505050565b6000600282049050600182168061259f57607f821691505b602082108114156125b3576125b26126c2565b5b50919050565b6125c282612720565b810181811067ffffffffffffffff821117156125e1576125e06126f1565b5b80604052505050565b60006125f58261253b565b91507fffffffffffffffffffffffffffffffffffffffffffffffffffffffffffffffff82141561262857612627612664565b5b600182019050919050565b600061263e8261253b565b91506126498361253b565b92508261265957612658612693565b5b828206905092915050565b7f4e487b7100000000000000000000000000000000000000000000000000000000600052601160045260246000fd5b7f4e487b7100000000000000000000000000000000000000000000000000000000600052601260045260246000fd5b7f4e487b7100000000000000000000000000000000000000000000000000000000600052602260045260246000fd5b7f4e487b7100000000000000000000000000000000000000000000000000000000600052604160045260246000fd5b6000601f19601f8301169050919050565b7f4572723a20746f6b656e20697320534f554c20424f554e440000000000000000600082015250565b7f4552433732313a207472616e7366657220746f206e6f6e20455243373231526560008201527f63656976657220696d706c656d656e7465720000000000000000000000000000602082015250565b7f4f776e61626c653a206e6577206f776e657220697320746865207a65726f206160008201527f6464726573730000000000000000000000000000000000000000000000000000602082015250565b7f4552433732313a207472616e736665722066726f6d20696e636f72726563742060008201527f6f776e6572000000000000000000000000000000000000000000000000000000602082015250565b7f4552433732313a20746f6b656e20616c7265616479206d696e74656400000000600082015250565b7f4552433732313a207472616e7366657220746f20746865207a65726f2061646460008201527f7265737300000000000000000000000000000000000000000000000000000000602082015250565b7f4552433732313a20617070726f766520746f2063616c6c657200000000000000600082015250565b7f4552433732313a206f70657261746f7220717565727920666f72206e6f6e657860008201527f697374656e7420746f6b656e0000000000000000000000000000000000000000602082015250565b7f4552433732313a20617070726f76652063616c6c6572206973206e6f74206f7760008201527f6e6572206e6f7220617070726f76656420666f7220616c6c0000000000000000602082015250565b7f4552433732313a2062616c616e636520717565727920666f7220746865207a6560008201527f726f206164647265737300000000000000000000000000000000000000000000602082015250565b7f4552433732313a206f776e657220717565727920666f72206e6f6e657869737460008201527f656e7420746f6b656e0000000000000000000000000000000000000000000000602082015250565b7f4552433732313a206d696e7420746f20746865207a65726f2061646472657373600082015250565b7f4552433732313a20617070726f76656420717565727920666f72206e6f6e657860008201527f697374656e7420746f6b656e0000000000000000000000000000000000000000602082015250565b7f4f776e61626c653a2063616c6c6572206973206e6f7420746865206f776e6572600082015250565b7f4552433732314d657461646174613a2055524920717565727920666f72206e6f60008201527f6e6578697374656e7420746f6b656e0000000000000000000000000000000000602082015250565b7f4552433732313a20617070726f76616c20746f2063757272656e74206f776e6560008201527f7200000000000000000000000000000000000000000000000000000000000000602082015250565b7f4552433732313a207472616e736665722063616c6c6572206973206e6f74206f60008201527f776e6572206e6f7220617070726f766564000000000000000000000000000000602082015250565b612bbb816124d1565b8114612bc657600080fd5b50565b612bd2816124e3565b8114612bdd57600080fd5b50565b612be9816124ef565b8114612bf457600080fd5b50565b612c008161253b565b8114612c0b57600080fd5b5056fea26469706673582212203982c9d9bbf0064be93406878ed22c1b32fa6cc2b0c0a591824f1a57f9ca320364736f6c63430008040033",
  "linkReferences": {},
  "deployedLinkReferences": {}
}